:03000000020A1AD7
:0C0A1A00787FE4F6D8FD7581100208001A
:050A5100D2B3D2B52272
:090A2600C2B3D2B5D2B3C2B522AD
:090A2F00C2B3C2B5D2B3D2B522A4
:090A3800C2B3D2B5D2B3C2B3229D
:090A4100C2B3D2B5D2B3C2B32294
:10097A007E80E4FDC2B3EF5E6004D2B58002C2B5E8
:0C098A00EEC313FED2B30DBD08EAC2B3E9
:01099600223E
:10091A007D08E4FFFEAC051DEC6013EF25E0FFEE59
:10092A0033FEC2B3D2B330B5EC43070180E7C2B39A
:01093A00229A
:1008F7007580FF7590FF75A0FF7F38120A0C1208EC
:10090700D37F0C120A0C1208D31209E67F057E006A
:030917000208D7FC
:0E0A0C00C2A0C2A1D2A28F901208D3C2A22211
:0408D3007F057E001F
:1008D700E4FDFCC3ED9FEC9E5015E4FBFA0BBB0057
:0F08E700010AEB64644A70F50DBD00010C80E45A
:0108F60022DF
:080863008B088A09890A8D0B3C
:10086B00E4F50CE50CC3950B5029D2A0C2A1D2A282
:10087B00AB08AA09A90A1209CDF5907401250AF54E
:10088B000AE43509F5097F647E001208D7C2A20578
:03089B000C80D0FE
:01089E002237
:1009FA00D2A0C2A1D2A28F907F647E001208D7C271
:020A0A00A22226
:1009E6007F01120A0C1208D37F02120A0C7F057EC1
:0409F600000208D71C
:1009970053656E7420446174613A20005265636444
:0D09A70020446174613A2000616D697400A4
:100800001208F7120A517F80120A0C7F057E00122F
:1008100008D77BFF7A0979977D0B1208637F057EE5
:10082000001208D77FC0120A0C7BFF7A0979A37DDA
:100830000B1208637F057E001208D77F8A120A0C0C
:100840007FAF7B01E4FD12089F7F887E131208D7DB
:100850007FCA120A0C7D01E4FF120A4A8F0F1209A7
:03086000FA80D843
:10095B008F0D8D0E120A267FA012097A120A38AF5C
:0F096B000D12097A120A38AF0E12097A020A38F1
:1009B400120A267FA112097A120A3812091A8F081C
:0809C400120A41120A2FAF08CC
:0109CC002208
:10089F008B088A09890AAF05AD0C12095BAB08AA50
:1008AF0009A90A1209CDFF12097A120A38120A2F62
:1008BF007F0A7E0012093BAB08AA09A90A1209CDCB
:0408CF00FF0209FA21
:070A4A0012095B1209B4223E
:10093B00E4FDFCC3ED9FEC9E5015E4FBFA0BBB00F2
:0F094B00010AEB64324A70F50DBD00010C80E427
:01095A00227A
:1009CD00BB010689828A83E0225002E722BBFE0228
:0909DD00E32289828A83E493225B
:00000001FF
