:10019800596F752068617665207072657373656440
:0201A800200035
:10000300C28EC2ACC2AF759850758920758DFDD272
:0D0013008ED2AFD2ACC298C299E4F51A2289
:0300230002018651
:10018600309809C298751A0185991B32309902C2B6
:0201960099329C
:1001700012011C6010F599740129F9E43AFA3099DA
:06018000FDC29980EB2294
:1001350078087C007D007BFF7A0179987E007F122C
:100145001200F6C2ACC2997B007A007908120170E0
:10015500851B993099FDC29975990D3099FDC29904
:0A01650075990A3099FDC299D2ACD9
:01016F00226D
:030000000201AA50
:0C01AA00787FE4F6D8FD75811B02002070
:0100200022BD
:10002600E709F608DFFA8046E709F208DFFA803EBC
:1000360088828C83E709F0A3DFFA8032E309F608A9
:10004600DFFA8078E309F208DFFA807088828C8311
:10005600E309F0A3DFFA806489828A83E0A3F608C5
:10006600DFFA805889828A83E0A3F208DFFA804C9F
:1000760080D280FA80C680D4806980F28033801076
:1000860080A680EA809A80A880DA80E280CA8033DF
:1000960089828A83ECFAE493A3C8C582C8CCC58357
:1000A600CCF0A3C8C582C8CCC583CCDFE9DEE78027
:1000B6000D89828A83E493A3F608DFF9ECFAA9F0A6
:1000C600EDFB2289828A83ECFAE0A3C8C582C8CCFC
:1000D600C583CCF0A3C8C582C8CCC583CCDFEADE15
:1000E600E880DB89828A83E493A3F208DFF980CC77
:1000F60088F0EF60010E4E60C388F0ED2402B40470
:100106000050B9F582EB2402B4040050AF23234516
:06011600822390007673C5
:10011C00BB010689828A83E0225002E722BBFE02E1
:09012C00E32289828A83E4932214
:00000001FF
