:03000000020924CE
:0C092400787FE4F6D8FD75810902091205
:100912007590FF1208F61208907F647E001208D6C6
:0209220080F45F
:10089000E4F508F509D2917FE87E031208D6120923
:1008A000300509E50970020508C3940CE5089400B9
:0308B00040E32200
:1008B300E4F508F509C2911209307F327E0012086F
:1008C300D60509E50970020508C3940CE5089400F0
:0308D30040E322DD
:10080000E4F508F509D291120930E50964034508B9
:100810007002801CE5096406450870028012E50933
:100820006409450870028008E509640C45087006F3
:100830007F32FE1208D60509E50970020508C39447
:080840000CE508940040BE2203
:10084800E4F508F509C291120930E5096403450881
:100858007002801CE5096406450870028012E509EB
:100868006409450870028008E509640C45087006AB
:100878007F32FE1208D60509E50970020508C394FF
:080888000CE508940040BE22BB
:1008F600E4F508F509C2911209300509E509700207
:0C0906000508C39410E508940040EA22A4
:06093000D29000C29022EB
:1008D600E4FDFCC3ED9FEC9E5015E4FBFA0BBB0058
:0F08E600010ABA04F8BBFBF50DBD00010C80E45C
:0108F50022E0
:00000001FF
