:030000000208EF04
:0C08EF00787FE4F6D8FD758128020936F8
:100A3F0002270000140A004000F9002400300019BA
:100A4F000012000200F8000000100208000001224E
:010A5F000096
:100A6100D2B6D2B5C293C292C291C29075890175B4
:0B0A71008AF6758CFF75A882D28C22DB
:100A7C00758901758A36758CF6D28C308DFDC28CD9
:030A8C00C28D22F6
:03000B0002097B6C
:10097B00C0E0C0D075D000C000758A36758CF67596
:10098B00A0FFC293C291C292C2900522532203E5EB
:10099B00221460191460251460312403703AE51F8A
:1009AB0025E0240AF808E6F5A0D290802BE5212556
:1009BB00E0240AF808E6F5A0D291801CE52425E096
:1009CB00240AF808E6F5A0D292800DE52625E0244E
:0F09DB000AF808E6F5A0D293D000D0D0D0E032D1
:10080000120A6120B57130B66E0509E5097002055E
:1008100008850827F528AE27AF287C007D0A120935
:10082000EA8C258D26AE27AF287C007D0A1209EAC6
:100830008E278F287C007D0A1209EA8C238D24AE36
:1008400027AF287C007D0A1209EA8E278F287C00BA
:100850007D0A1209EA8C208D21AE27AF287C007D0D
:100860000A1209EA8E1E8F1FE509B40F0AE508B4C3
:100870002705E4F508F50930B58920B686E50915A0
:100880000970021508850827850928AE27AF287C3E
:10089000007D0A1209EA8C258D26AE27AF287C0040
:1008A0007D0A1209EA8E278F287C007D0A1209EA48
:1008B0008C238D24AE27AF287C007D0A1209EA8E96
:1008C000278F287C007D0A1209EA8C208D21AE2713
:1008D000AF287C007D0A1209EA8E1E8F1FE50945AC
:0F08E00008600302080375082775090F02080353
:1008FB00020800E493A3F8E493A34003F68001F20B
:10090B0008DFF48029E493A3F85407240CC8C333FD
:10091B00C4540F4420C8834004F456800146F6DFCC
:10092B00E4800B0102040810204080900A3FE47E13
:10093B00019360BCA3FF543F30E509541FFEE493C1
:10094B00A360010ECF54C025E060A840B8E493A388
:10095B00FAE493A3F8E493A3C8C582C8CAC583CAB3
:10096B00F0A3C8C582C8CAC583CADFE9DEE780BE6B
:010A60000095
:1009EA00BC000BBE0029EF8DF084FFADF022E4CCF1
:1009FA00F875F008EF2FFFEE33FEEC33FCEE9DECBA
:100A0A00984005FCEE9DFE0FD5F0E9E4CEFD22EDFF
:100A1A00F8F5F0EE8420D21CFEADF075F008EF2F49
:100A2A00FFED33FD4007985006D5F0F222C398FD3A
:050A3A000FD5F0EA22D7
:00000001FF
