:0300000002000EED
:0C000E00787FE4F6D8FD75811B020055D8
:06000300040C3030303027
:100117001202441201E2E5116401451070F5F51071
:10012700F511050BE50B7002050AD3940FE50A9448
:10013700274005E4F50AF50B850A16850B17E4F544
:1001470018F519C3E5199404E518940050C5AE16BF
:10015700AF177C007D0A12018DAB05AA04AE16AF5E
:10016700177C007D0A12018D8E168F17AF03EF24BF
:1001770030FFC374039519240CF8A6070519E51970
:0601870070C1051880BDE7
:10024400758911758CFC758A2BE4F510F511D28C27
:10025400D2A9D2AFF516F517F50AF50BF514F51575
:05026400F508F5092278
:03000B00020215D9
:10021500C0E0C0D0C28C758CFC758A2B0509E50938
:1002250070020508B4BC11E508B4020C7510007520
:0F0235001101750800750900D28CD0D0D0E032CD
:1001E200E4F51AF51B75A0FFAF1B7401A807088080
:1001F20002C333D8FCF4F590740C2FF8E6FF12001A
:100202009A051BE51B7002051AC39404E51A9400B3
:0202120040D3D7
:0102140022C7
:10009A00EF24D0B40A00505E9000B075F003A4C5F6
:1000AA008325F0C583730200CE0200D30200D80272
:1000BA0000DD0200E20200E70200EC0200F10200A9
:1000CA00F60200FB75A0C0803075A0F9802B75A0E0
:1000DA00A4802675A0B0802175A099801C75A09275
:1000EA00801775A082801275A0F8800D75A0808097
:1000FA000875A090800375A0FFE4FFFE0FBF000102
:0C010A000EC3EF94C8EE6480948040F0B7
:0101160022C6
:10001A00020117E493A3F8E493A34003F68001F2E4
:10002A0008DFF48029E493A3F85407240CC8C333E7
:10003A00C4540F4420C8834004F456800146F6DFB6
:10004A00E4800B0102040810204080900003E47E43
:10005A00019360BCA3FF543F30E509541FFEE493AB
:10006A00A360010ECF54C025E060A840B8E493A372
:10007A00FAE493A3F8E493A3C8C582C8CAC583CA9D
:10008A00F0A3C8C582C8CAC583CADFE9DEE780BE55
:0100090000F6
:10018D00BC000BBE0029EF8DF084FFADF022E4CC56
:10019D00F875F008EF2FFFEE33FEEC33FCEE9DEC1F
:1001AD00984005FCEE9DFE0FD5F0E9E4CEFD22ED65
:1001BD00F8F5F0EE8420D21CFEADF075F008EF2FAF
:1001CD00FFED33FD4007985006D5F0F222C398FDA0
:0501DD000FD5F0EA223D
:00000001FF
