:030000000201B743
:0C01B700787FE4F6D8FD7581200201FE7F
:0C02EA00040D383035310408383035314F
:10024300E4F511F51212000330002D74082512F89D
:10025300A60C0512E51270020511D39403E511648F
:100263008094804011E4F511F51285080D85090E7F
:0D027300850A0F850B10C20012028080CB9F
:10000300C28EC2ACC2AF759850758920758DFDD272
:0F0013008ED2AFD2ACC298C299C200E4F5A0223F
:030023000202D9FD
:1002D900309808C298D20085990C32309902C29997
:0102E90032E2
:10028000E4F513F51475A0FFAF147401A8070880F6
:1002900002C333D8FCF4F590740D2FF8E6FF12007A
:1002A000260514E51470020513C39404E5139400A5
:0202B00040D339
:0102B2002229
:10002600EF1202B301A02100EB3000F13100F732EC
:1000360000FA33010034010635010836010E370196
:100046001438011A39011C41012242012843012DAD
:1000560044013245013746013C47014148014649C2
:10006600014B4A01504B01554C015A4D015F4E015F
:10007600644F016950016E51017352017853017D3D
:1000860054018255018756018C57019158019659A2
:1000960000F75A011C61012262012863012D6401E7
:1000A6003265013766013C67014168014669014BCB
:1000B6006A01506B01556C015A6D015F6E01646FE8
:1000C600016970016E71017372017873017D7401AB
:1000D6008275018776018C7701917801967900F710
:1000E6007A000001A575A0C00201A875A0F9020159
:1000F600A802019B75A0B00201A875A0990201A8EB
:10010600807075A0820201A875A0F80201A875A0EA
:10011600800201A8802075A0880201A875A083022C
:1001260001A875A0C6807B75A0A1807675A0868083
:100136007175A08E806C75A090806775A08B8062AB
:1001460075A0CF805D75A0F1805875A08F8053751E
:10015600A0C7804E75A0AA804975A0AB804475A043
:10016600A3803F75A08C803A75A094803575A0AFAA
:10017600803075A092802B75A087802675A0C180DF
:100186002175A0E3801C75A095801775A089801243
:1001960075A091800D75A0A4800875A0BF80037519
:1001A600A0FFE4FFFE0FBF00010EEF64C84E70F51E
:0101B6002226
:1001C300020243E493A3F8E493A34003F68001F20D
:1001D30008DFF48029E493A3F85407240CC8C3333D
:1001E300C4540F4420C8834004F456800146F6DF0C
:1001F300E4800B01020408102040809002EAE47EB0
:10020300019360BCA3FF543F30E509541FFEE49300
:10021300A360010ECF54C025E060A840B8E493A3C7
:10022300FAE493A3F8E493A3C8C582C8CAC583CAF2
:10023300F0A3C8C582C8CAC583CADFE9DEE780BEAA
:0102F6000007
:1002B300D083D082F8E4937012740193700DA3A3DA
:1002C30093F8740193F5828883E4737402936860EE
:0602D300EFA3A3A380DFEE
:00000001FF
