:030000000209A250
:0C09A200787FE4F6D8FD7581150208F698
:0809AE00010204081020408042
:1008F60078087C007D007BFF7A0979AE7E007F0850
:100906001208D075A0AAE4F580F590E4F510F5116B
:1009160012096B0511E51170020510D39407E51055
:10092600940040ECE4F5A0759001309034D281FF3C
:10093600FE120977C281E4FFFE120977E4F510F58D
:100946001112096B0511E51170020510D39407E524
:1009560010940040ECE4F5A0F5903090AED2828081
:05096600FED28280FEBC
:0C096B0074082511F8E6F5A07F287E0036
:10097700758901758CFC758A18E4F512F513D3E5B2
:10098700139FE5129E5013D28C308DFDC28CC28D01
:0B0997000513E51370E8051280E42250
:10080000E709F608DFFA8046E709F208DFFA803EDA
:1008100088828C83E709F0A3DFFA8032E309F608C7
:10082000DFFA8078E309F208DFFA807088828C832F
:10083000E309F0A3DFFA806489828A83E0A3F608E3
:10084000DFFA805889828A83E0A3F208DFFA804CBD
:1008500080D280FA80C680D4806980F28033801094
:1008600080A680EA809A80A880DA80E280CA8033FD
:1008700089828A83ECFAE493A3C8C582C8CCC58375
:10088000CCF0A3C8C582C8CCC583CCDFE9DEE78045
:100890000D89828A83E493A3F608DFF9ECFAA9F0C4
:1008A000EDFB2289828A83ECFAE0A3C8C582C8CC1A
:1008B000C583CCF0A3C8C582C8CCC583CCDFEADE33
:1008C000E880DB89828A83E493A3F208DFF980CC95
:1008D00088F0EF60010E4E60C388F0ED2402B4048E
:1008E0000050B9F582EB2402B4040050AF23234535
:0608F00082239008507302
:00000001FF
