:0300000002087380
:0C087300787FE4F6D8FD7581070208606C
:10080000E4FDFCC3ED9FEC9E5015E4FBFA0BBB002E
:0F081000010AEB646C4A70F50DBD00010C80E429
:01081F0022B6
:10082000E4FDFCC3ED9FEC9E5015E4FBFA0BBB000E
:0F083000010AEB64644A70F50DBD00010C80E411
:01083F002296
:10084000E4FDFCC3ED9FEC9E5015E4FBFA0BBB00EE
:0F085000010ABA04F8BBFBF50DBD00010C80E4F2
:01085F002276
:10086000E4F5A0D2A17FE87E03120800C2A112081D
:030870000080F015
:00000001FF
