:0308D500010A0015
:10088C001208C51208B3E50A60FCE4F50AF58DF50B
:10089C008B0509E50970020508648C450870E7F5BD
:0708AC0008F509B2A080DF8E
:0A08C500E4F580F590F5A0F5B022EF
:1008B30053890F438910E4F58DF58BD2ABD2AFD2B8
:0208C3008E2283
:03001B000208CF09
:0608CF00750A01C28F3220
:03000000020800F3
:0C080000787FE4F6D8FD75810A020847F5
:10080C0002088CE493A3F8E493A34003F68001F26E
:10081C0008DFF48029E493A3F85407240CC8C333ED
:10082C00C4540F4420C8834004F456800146F6DFBC
:10083C00E4800B01020408102040809008D5E47E6F
:10084C00019360BCA3FF543F30E509541FFEE493B1
:10085C00A360010ECF54C025E060A840B8E493A378
:10086C00FAE493A3F8E493A3C8C582C8CAC583CAA3
:10087C00F0A3C8C582C8CAC583CADFE9DEE780BE5B
:0108D800001F
:00000001FF
