:03000000020003F8
:0C000300787FE4F6D8FD75810E02004AFB
:07013D0005083132333400E4
:1000F000E4F50DF50E7580FFAF0EAE0D12012E74F6
:1001000008250EF8E6FF12008F8F80050EE50E70B1
:0F01100002050D750D005403F50E12011F80D668
:0E011F00E4FFFE0FBF00010EEF64144E70F5FA
:01012D0022AF
:0F012E007401A807088002C333D8FCF4F59022AF
:10008F00EF24D0B40A0050549000A575F003A4C516
:10009F008325F0C583730200C30200C70200CB02A1
:1000AF0000CF0200D30200D70200DB0200DF020004
:1000BF00E30200E779C0802679F9802279A4801EB7
:1000CF0079B0801A79998016799280127982800E90
:1000DF0079F8800A7980800679988002E4F9AF0177
:0100EF0022EE
:10000F000200F0E493A3F8E493A34003F68001F217
:10001F0008DFF48029E493A3F85407240CC8C333F2
:10002F00C4540F4420C8834004F456800146F6DFC1
:10003F00E4800B010204081020408090013DE47E13
:10004F00019360BCA3FF543F30E509541FFEE493B6
:10005F00A360010ECF54C025E060A840B8E493A37D
:10006F00FAE493A3F8E493A3C8C582C8CAC583CAA8
:10007F00F0A3C8C582C8CAC583CADFE9DEE780BE60
:0101440000BA
:00000001FF
