:030000000209F200
:0C09F200787FE4F6D8FD75811F0208E153
:0909D6007590FFE4F5907F06FE28
:1009DF00E4FDFCC3ED9FEC9E5008000DBD00010C23
:0209EF0080F195
:0109F10022E3
:10091A00E4FFFE1209DF7590FFE4F5907FE00E1206
:10092A0009DF7590017F461E1209DFE4F590E59014
:0E093A006401FB7A007F9A0E1209DF1EAF03E4
:01094800228C
:10097500EF4E600A1209D67590017F40801175907F
:10098500FFE4F5907F3CFE1209DF7590017F0A12A6
:0309950009DF2255
:1009B9001209D67590017F091209DFE4F590E590D7
:0C09C9006401FB7A007F371209DFAF03E6
:0109D50022FF
:04099800AB07AA06F9
:10099C009000007E00EB5401FF120975EAC313FAB4
:0C09AC00EB13FBA3E5826408458370E7B1
:0109B800221C
:10094900E4F51EF51FF582F583E51EC313F51EE5D3
:100959001F13F51F1209B9EF4E6003431F80A3E56A
:0B096900826408458370E2AE1EAF1FE1
:010974002260
:040899008E188F190D
:10089D00E4F51AF51BF582F583E51AC313F51AE590
:1008AD001B13F51BE51930E00C1209B9EF4E600B67
:1008BD00431B808006E4FFFE120975E518C313F58E
:1008CD0018E51913F519A3E5826408458370CAAEBE
:0308DD001AAF1B34
:0108E00022F5
:0A084F008B118A1289138C148D1589
:10085900E4F516F517C3E5179515E5169514502F08
:10086900AB11AA12A913851782851683120800FFF6
:100879007E00120899AB11AA12A913851782851651
:0F08890083EF12082D0517E51770CA051680C6F4
:01089800223D
:1008E100E4F590C2A0C2A112091A8E1C8F1D7F339C
:1008F1007E00120998E4F51012094974082510F8D0
:10090100A6070510E510C3940840EDE51D451C60E0
:0909110004D2A080D2C2A080CE65
:10080000BB010CE58229F582E5833AF583E02250AD
:1008100006E92582F8E622BBFE06E92582F8E222F7
:0D082000E58229F582E5833AF583E4932211
:10082D00F8BB010DE58229F582E5833AF583E8F001
:10083D00225006E92582C8F622BBFE05E92582C8AD
:02084D00F22295
:00000001FF
