:03000000020931C1
:0C093100787FE4F6D8FD75810D02080007
:0D0924004C434420697320526561647900E2
:1008000012089E7F801209087F057E0012087E7BF9
:10081000FF7A0979241208C17F057E0012087E7FC5
:10082000C01209087F057E0012087E12093D1209D8
:10083000168F0CE4F50DAF0C1208F87F057E001240
:0D084000087E050DE50DC3940C40EB80E132
:10089E007580FF7590FF75A0FF7F3812090812084A
:1008AE007A7F0C12090812087A1208E47F057E007E
:0308BE0002087EAF
:0E090800C2A0C2A1D2A28F9012087AC2A2226F
:04087A007F057E0078
:10087E00E4FDFCC3ED9FEC9E5015E4FBFA0BBB00B0
:0F088E00010AEB64644A70F50DBD00010C80E4B3
:01089D002238
:0608C1008B088A09890A78
:1008C700E4F50BAB08AA09A90A850B827583001208
:0C08D700084DFF60071208F8050B80E7D1
:0108E30022F2
:1008F800D2A0D2A28F907F647E0012087EC2A2226C
:1008E4007F0112090812087A7F021209087F057E27
:0408F4000002087E78
:0C093D00758920758DFA759850D28E22B5
:0D091600E4FE3098FDAF99C2980EBE0CF5BE
:0109230022B1
:10084D00BB010CE58229F582E5833AF583E0225060
:10085D0006E92582F8E622BBFE06E92582F8E222AA
:0D086D00E58229F582E5833AF583E49322C4
:00000001FF
