:03000000020800F3
:0C080000787FE4F6D8FD75811B020847E4
:060A5B00040C30303030C5
:10090900120A361209D4E5116401451070F5F51083
:10091900F511050BE50B7002050AD39463E50A94FA
:10092900004005E4F50AF50B850A16850B17E4F571
:1009390018F519C3E5199404E518940050C5AE16C5
:10094900AF177C007D0A12097FAB05AA04AE16AF6A
:10095900177C007D0A12097F8E168F17AF03EF24CB
:1009690030FFC374039519240CF8A6070519E51976
:0609790070C1051880BDED
:100A3600758911758CFC758A2BE4F510F511D28C2D
:100A4600D2A9D2AFF516F517F50AF50BF514F5157B
:050A5600F508F509227E
:03000B00020A07DF
:100A0700C0E0C0D0C28C758CFC758A2B0509E5093E
:100A170070020508B4BC11E508B4020C7510007526
:0F0A27001101750800750900D28CD0D0D0E032D3
:1009D400E4F51AF51B75A0FFAF1B7401A807088086
:1009E40002C333D8FCF4F590740C2FF8E6FF120818
:1009F4008C051BE51B7002051AC39404E51A9400C8
:020A040040D3DD
:010A060022CD
:10088C00EF24D0B40A00505E9008A275F003A4C502
:10089C008325F0C583730208C00208C50208CA028A
:1008AC0008CF0208D40208D90208DE0208E30208C5
:1008BC00E80208ED75A0FC803075A060802B75A057
:1008CC00DA802675A0F2802175A066801C75A0B612
:1008DC00801775A0BE801275A0E0800D75A0FE80FB
:1008EC000875A0F68003E4F5A0E4FFFE0FBF00013D
:0C08FC000EC3EF94C8EE6480948040F0BE
:0109080022CC
:10080C00020909E493A3F8E493A34003F68001F2F0
:10081C0008DFF48029E493A3F85407240CC8C333ED
:10082C00C4540F4420C8834004F456800146F6DFBC
:10083C00E4800B0102040810204080900A5BE47EE7
:10084C00019360BCA3FF543F30E509541FFEE493B1
:10085C00A360010ECF54C025E060A840B8E493A378
:10086C00FAE493A3F8E493A3C8C582C8CAC583CAA3
:10087C00F0A3C8C582C8CAC583CADFE9DEE780BE5B
:010A61000094
:10097F00BC000BBE0029EF8DF084FFADF022E4CC5C
:10098F00F875F008EF2FFFEE33FEEC33FCEE9DEC25
:10099F00984005FCEE9DFE0FD5F0E9E4CEFD22ED6B
:1009AF00F8F5F0EE8420D21CFEADF075F008EF2FB5
:1009BF00FFED33FD4007985006D5F0F222C398FDA6
:0509CF000FD5F0EA2243
:00000001FF
