:030000000208CF24
:0C08CF00787FE4F6D8FD75811902091647
:10097B00100830313233343536373839414243443D
:02098B004546DF
:10080000758920758DFD759850D28E75A0FFE4F521
:100810009085A01853180FE518B40FF27F057E00DD
:1008200012095B85A01853180FE518640F60ED7F5F
:10083000057E0012095B85A01853180FE518640F98
:1008400060DA7590FE85A01853180FE518640F60E4
:1008500005E4F51980347590FD85A01853180FE54F
:1008600018640F600575190180207590FB85A0182C
:1008700053180FE518640F6005751902800C759008
:10088000F785A01853180F751903E518B40E0AE57B
:100890001925E025E02408801CE518B40D0AE519A7
:1008A00025E025E02409800DE518B40B11E5192594
:1008B000E025E0240AF8E6FF12098E02080EE51989
:0F08C00025E025E0240BF8E6FF12098E02080E52
:08098E008F993099FDC29922F6
:10095B00E4FDFCE4FBFAC3EB9FEA9E50070BBB00E4
:0F096B00010A80F20DBD00010CBC04E7BDFBE4E6
:01097A00225A
:1008DB00020800E493A3F8E493A34003F68001F22B
:1008EB0008DFF48029E493A3F85407240CC8C3331E
:1008FB00C4540F4420C8834004F456800146F6DFED
:10090B00E4800B010204081020408090097BE47EF8
:10091B00019360BCA3FF543F30E509541FFEE493E1
:10092B00A360010ECF54C025E060A840B8E493A3A8
:10093B00FAE493A3F8E493A3C8C582C8CAC583CAD3
:10094B00F0A3C8C582C8CAC583CADFE9DEE780BE8B
:01098D000069
:00000001FF
