:03000000020900F2
:0C090000787FE4F6D8FD75810D02083AFE
:10089400E4F580F59075A0FFF5B07F3812090C12CD
:1008A40008B87F0C12090C1208B81208DC7F057E08
:0408B400000208BC7A
:0C090C00C2B2D2B38F901208B8C2B3225E
:0408B8007F057E003A
:1008BC00E4FDFCC3ED9FEC9E5015E4FBFA0BBB0072
:0F08CC00010AEB64644A70F50DBD00010C80E475
:0108DB0022FA
:0A0800008B088A09890A8C0B8D0C05
:10080A00E4F50DC3E50D950CE4950B5022D2B2D256
:10081A00B3AB08AA09A90A850D8275830012086775
:0F082A00F5907F647E001208BCC2B3050D80D428
:01083900229C
:1008F000D2B2D2B38F907F647E001208BCC2B32202
:1008DC007F0112090C1208B87F0212090C7F057EE9
:0408EC00000208BC42
:10083A001208947F8012090C1208B87F411208F03E
:10084A007F327E001208BC7FCE12090C1208B87FD4
:0D085A00411208F07F327E001208BC80FEC3
:10086700BB010CE58229F582E5833AF583E0225046
:1008770006E92582F8E622BBFE06E92582F8E22290
:0D088700E58229F582E5833AF583E49322AA
:00000001FF
