:030000000201C733
:0C01C700787FE4F6D8FD75812202020E5C
:1002BE004B4559203A200000E0D0B0700E0D0B07D0
:0802DC0002210000021F0000D6
:10028E00C28EC2ACC2AF759840758920758DFDD2F5
:0A029E008ED2AFD2ACC298C29922F2
:1002A8001200F96010F599740129F9E43AFA3099C5
:0602B800FDC29980EB225B
:040253008E158F165F
:1002570078177C007D007BFF7A0279BE7E007F08DD
:100267001200D3C3E516940AE51564809480E51659
:1002770050062430F51D80042437F51DE4F51EFBD8
:070287007A0079170202A8BA
:0E02CE007590F8E4F5A0C2B5C2AF7580FF22AE
:10011200E4F50C780D7C00FD7BFF7A0279C6FE7F48
:10012200041200D378117C007D007BFF7A0279CA29
:100132007E007F041200D31202CE12028EE4F50872
:10014200F509740D2509F8E6240FF58085800CE584
:100152000C540F640F6058E4F50AF50BC3E50B94D9
:1001620004E50A6480948050467411250BF8E6FF7A
:10017200E50C540FB5072EE50BAE0A7802C333CE59
:1001820033CED8F9FFE5092401CDE43508CD2FF5AA
:1001920020ED3EF51FAF20FE1202537580FFE58071
:1001A200F4600C80F9050BE50B70B1050A80AD0512
:1001B20009E50970020508C39404E5086480948087
:0501C200408002013F36
:1001D300020112E493A3F8E493A34003F68001F22F
:1001E30008DFF48029E493A3F85407240CC8C3332D
:1001F300C4540F4420C8834004F456800146F6DFFC
:10020300E4800B01020408102040809002DCE47EAD
:10021300019360BCA3FF543F30E509541FFEE493F0
:10022300A360010ECF54C025E060A840B8E493A3B7
:10023300FAE493A3F8E493A3C8C582C8CAC583CAE2
:10024300F0A3C8C582C8CAC583CADFE9DEE780BE9A
:0102E4000019
:10000300E709F608DFFA8046E709F208DFFA803EDF
:1000130088828C83E709F0A3DFFA8032E309F608CC
:10002300DFFA8078E309F208DFFA807088828C8334
:10003300E309F0A3DFFA806489828A83E0A3F608E8
:10004300DFFA805889828A83E0A3F208DFFA804CC2
:1000530080D280FA80C680D4806980F28033801099
:1000630080A680EA809A80A880DA80E280CA803302
:1000730089828A83ECFAE493A3C8C582C8CCC5837A
:10008300CCF0A3C8C582C8CCC583CCDFE9DEE7804A
:100093000D89828A83E493A3F608DFF9ECFAA9F0C9
:1000A300EDFB2289828A83ECFAE0A3C8C582C8CC1F
:1000B300C583CCF0A3C8C582C8CCC583CCDFEADE38
:1000C300E880DB89828A83E493A3F208DFF980CC9A
:1000D30088F0EF60010E4E60C388F0ED2402B40493
:1000E3000050B9F582EB2402B4040050AF2323453A
:0600F3008223900053730C
:1000F900BB010689828A83E0225002E722BBFE0205
:09010900E32289828A83E4932237
:00000001FF
