:0300000002099161
:0C099100787FE4F6D8FD75810D0209D8CE
:060A87000408383035318F
:080A7800120A80120A1D80FB26
:070A800075A0FF7590FF2235
:100A1D00E4F50CF50D75A0FFE4F580AF0D04A80706
:100A2D00088002C333D8FCF4F59074082FF8E6FF64
:100A3D00120800050DE50D7002050CC39404E50CBC
:040A4D00940040D100
:010A51002282
:10080000EF120A52097A2108C53008CB3108D132DB
:1008100008D43308DA3408E03508E23608E8370847
:10082000EE3808F43908F64108FC4209024309078A
:1008300044090C45091146091647091B4809204976
:1008400009254A092A4B092F4C09344D09394E090B
:100850003E4F094350094851094D52095253095717
:1008600054095C55096156096657096B5809705956
:1008700008D15A08F66108FC620902630907640995
:100880000C65091166091667091B680920690925A5
:100890006A092A6B092F6C09346D09396E093E6F9C
:1008A000094370094871094D720952730957740957
:1008B0005C75096176096677096B7809707908D1EA
:1008C0007A0000097F75A0C002098275A0F90209AB
:1008D0008202097575A0B002098275A09902098289
:1008E000807075A08202098275A0F802098275A045
:1008F00080020982802075A08802098275A0830287
:10090000098275A0C6807B75A0A1807675A08680BF
:100910007175A08E806C75A090806775A08B8062C9
:1009200075A0CF805D75A0F1805875A08F8053753C
:10093000A0C7804E75A0AA804975A0AB804475A061
:10094000A3803F75A08C803A75A094803575A0AFC8
:10095000803075A092802B75A087802675A0C180FD
:100960002175A0E3801C75A095801775A089801261
:1009700075A091800D75A0A4800875A0BF80037537
:10098000A0FFE4FFFE0FBF00010EEF64C84E70F53C
:010990002244
:10099D00020A78E493A3F8E493A34003F68001F2EE
:1009AD0008DFF48029E493A3F85407240CC8C3335B
:1009BD00C4540F4420C8834004F456800146F6DF2A
:1009CD00E4800B0102040810204080900A87E47E29
:1009DD00019360BCA3FF543F30E509541FFEE4931F
:1009ED00A360010ECF54C025E060A840B8E493A3E6
:1009FD00FAE493A3F8E493A3C8C582C8CAC583CA11
:100A0D00F0A3C8C582C8CAC583CADFE9DEE780BEC8
:010A8D000068
:100A5200D083D082F8E4937012740193700DA3A333
:100A620093F8740193F5828883E473740293686047
:060A7200EFA3A3A380DF47
:00000001FF
