:030000000209F3FF
:0C09F300787FE4F6D8FD75812002096DC4
:0E09E50053656E74203A0052656164203A003A
:070946001209C17F057E00CC
:10094D00E4FDFCC3ED9FEC9E5015E4FBFA0BBB00E0
:0F095D00010ABA04F8BBFBF50DBD00010C80E4E4
:01096C002268
:1009C1008FA0D2B6C2B0C2B17F017E0012094DC262
:0209D100B6224C
:1009D3008FA0D2B6D2B0C2B17F017E0012094DC240
:0209E300B6223A
:0608C9008B0F8A1089115B
:1008CF00E4F512F513AB0FAA10A911851382851247
:1008DF008312089CFF600D1209D30513E51370E511
:0408EF00051280E18D
:0108F30022E2
:1009AB007F381209467F0F1209467F801209C17FDB
:0609BB00057E0002094D5B
:100994001209FF7FA01208F41209A4E4FF1208F45C
:0709A400D2910000C2912274
:0B09FF00D290D2910000C290C2912261
:0B0A0A00C290D2910000D290C2912255
:1008F400E4FBFAEFC4131313540124FF9290EF2581
:10090400E0FFD2910000C2910BBB00010AEB640826
:090914004A70E0A2909200C2902A
:01091D0022B7
:10091E00D290E4F508FFFEE50825E0F508D2910037
:10092E00003090020508C2910FBF00010EEF64085F
:07093E004E70E4C290AF0807
:01094500228F
:10085A001209947F051208F41209A47F411208F4C0
:10086A001209A4120A0A200024D2817F647E00128F
:10087A00094DC28112094D7F861209C17F351209BD
:10088A00D37F871209C17F411209D38002D2810224
:02089A0009A4AF
:100800001209941209FF7FA11208F41209A4120917
:100810001E8F0D1209A412091E8F0E1209A4120AAE
:100820000AE50DB40520C2837F647E0012094DD213
:100830008312094DE50D2430F5097FC61209C1AFB9
:10084000091209D38002D283E50EB4410A7FC71290
:0A08500009C1AF0E1209D30209A47A
:10096D001209AB7BFF7A0979E51208C97FC012091C
:10097D00C17BFF7A0979EC1208C9E4F50AF50B126F
:07098D00085A12080080F86F
:10089C00BB010CE58229F582E5833AF583E0225011
:1008AC0006E92582F8E622BBFE06E92582F8E2225B
:0D08BC00E58229F582E5833AF583E4932275
:00000001FF
