:030000000208CF24
:0C08CF00787FE4F6D8FD75812002091640
:100AC1004248415247415649004B554C4B41524EC9
:020AD1004900DA
:080AE900C181C100020F0001F0
:100AAE007590FF75A0FF75B0FFC2A2C2A0E4F5114C
:030ABE00F512220C
:100A1500120A727F38120AD3120A727F38120AD369
:100A2500120A727F38120AD3120A727F0C120AD385
:0D0A3500120A72120A967F057E00020A76F0
:0C0AD300C2A0C2A18F80D2A200C2A22249
:100A96007F01120AD37F0F7E00120A767F02120AA6
:080AA600D37F0F7E00020A76E7
:0A09CF008B088A09890A8C0B8D0C35
:1009D900E5124511702FF50DF50EC3E50E950CE5E1
:1009E9000D950B5020AB08AA09A90A850E82850D21
:1009F90083120A42FF120ADF120A72050EE50E700F
:0B0A0900D9050D80D575110075120194
:010A140022BF
:0A0ADF00D2A08F80D2A200C2A22292
:070A6F00120AD37F057E008F
:100A7600E4FDFCD3ED9FEC9E5015E4FBFA0BBB00A6
:0F0A8600010AEB64654A70F50DBD00010C80E4B8
:010A9500223E
:10095B007580FF120AAE120A157F80120AD37F0A26
:10096B007E00120A76E4F511F5127BFF7A0A79C143
:10097B007D08FC1209CF7FC0120AD37F0A7E0012BA
:10098B000A76E4F511F5127BFF7A0A79CA7D08FC29
:10099B001209CF7F02120A6F7F0E120AD37F051244
:1009AB000A7675110075120120A30BA201E4FE3328
:1009BB00FF12080080F220A4EFA200E4FE33FF1226
:0409CB00080080E4BC
:100800008F828E83A200E43365827002E583705B81
:100810000510E5107002050F6429450F6017E510FB
:100820006401450F600F7F30120A6F7F1C120AD3DC
:100830007FF40E8063E5106411450F70137FC012C2
:100840000AD37FF47E01120A76750F0075102922F3
:10085000E5106439450F70767F80120AD37FF47EED
:1008600001120A76750F0075100122A201E43365AA
:10087000827002E5837057E51015107002150FE5C0
:10088000106410450F6014E5106438450F600C7F4C
:1008900018120AD37FF47E01020A76E51064284517
:1008A0000F70137F8F120AD37FF47E01120A7675C0
:1008B0000F0075101022E510450F70127FCF120A3D
:0F08C000D37FF47E01120A76750F00751038226F
:1008DB0002095BE493A3F8E493A34003F68001F2CF
:1008EB0008DFF48029E493A3F85407240CC8C3331E
:1008FB00C4540F4420C8834004F456800146F6DFED
:10090B00E4800B0102040810204080900AE9E47E89
:10091B00019360BCA3FF543F30E509541FFEE493E1
:10092B00A360010ECF54C025E060A840B8E493A3A8
:10093B00FAE493A3F8E493A3C8C582C8CAC583CAD3
:10094B00F0A3C8C582C8CAC583CADFE9DEE780BE8B
:010AF1000004
:100A4200BB010CE58229F582E5833AF583E0225069
:100A520006E92582F8E622BBFE06E92582F8E222B3
:0D0A6200E58229F582E5833AF583E49322CD
:00000001FF
