:030000000209AE44
:0C09AE00787FE4F6D8FD7581130208F68E
:0809BA00010204081020408036
:1008F60078087C007D007BFF7A0979BA7E007F0844
:100906001208D0E4F5A0F580F590758901758CFC88
:10091600758A6730906CE4F510F51174082511F8A6
:10092600E6F5A07F327E0012098C0511E5117002F2
:100936000510D39405E510940040E0209040051181
:10094600E5118510107002051014F5112408F8E65B
:10095600F5A00511E511700205107F327E0012091F
:100966008CE4F5A074082511F8E6F5A07F027E0058
:1009760012098CE4F5A07F02FE12098C8095D283C1
:0609860080FED28380FE1A
:10098C00E4F510F511D3E5119FE5109E5013D28CB0
:10099C00308DFDC28CC28D0511E51170E8051080FB
:0209AC00E42243
:10080000E709F608DFFA8046E709F208DFFA803EDA
:1008100088828C83E709F0A3DFFA8032E309F608C7
:10082000DFFA8078E309F208DFFA807088828C832F
:10083000E309F0A3DFFA806489828A83E0A3F608E3
:10084000DFFA805889828A83E0A3F208DFFA804CBD
:1008500080D280FA80C680D4806980F28033801094
:1008600080A680EA809A80A880DA80E280CA8033FD
:1008700089828A83ECFAE493A3C8C582C8CCC58375
:10088000CCF0A3C8C582C8CCC583CCDFE9DEE78045
:100890000D89828A83E493A3F608DFF9ECFAA9F0C4
:1008A000EDFB2289828A83ECFAE0A3C8C582C8CC1A
:1008B000C583CCF0A3C8C582C8CCC583CCDFEADE33
:1008C000E880DB89828A83E493A3F208DFF980CC95
:1008D00088F0EF60010E4E60C388F0ED2402B4048E
:1008E0000050B9F582EB2402B4040050AF23234535
:0608F00082239008507302
:00000001FF
